S01D0000686561742073656E736F72205F7365636F6E6472792E73726563C5
S11300000C942A000C9434000C9434000C943400A6
S11300100C9434000C9434000C9434000C9434008C
S11300200C9434000C9434000C9434000C9434007C
S11300300C9434000C9434000C9434000C9434006C
S11300400C9434000C9434000C9434000C9434005C
S11300500C94340011241FBECFE5D8E0DEBFCDBF21
S11300600E9436000C9495000C9400000E947500C8
S11300700E9471000E94430080EE0E945C00892F60
S11300800E949100F9CF86B1806886B986B18860F4
S113009086B986B1846086B986B1826086B986B134
S11300A0816086B987B1806887B987B1806487B970
S11300B087B18F7D87B9089597B1907E97B997B12D
S11300C0892B87B986B1806486B9349BFECF86B10B
S11300D0806186B924B185B190E0982F8827822B5E
S11300E008958FB780688FBF089583E389B910BCE2
S11300F080B5806880BD80B5826080BD80B5846035
S113010080BD8AB18B7F8AB980B58F7E80BD80B572
S11301108F7D80BD80B5877F80BD8AB188608AB9B4
S111012008955D9BFECF8CB90895F894FFCF2F
S9030000FC
