S0130000686561742073656E736F722E73726563B5
S11300000C942A000C9447000C9447000C9447006D
S11300100C9447000C9447000C9447000C94470040
S11300200C9447000C9447000C9447000C94470030
S11300300C9447000C9447000C9447000C94470020
S11300400C9447000C9447000C9447000C94470010
S11300500C94470011241FBECFE5D8E0DEBFCDBF0E
S113006011E0A0E6B0E0E0E3F8E002C005900D92F4
S1130070A431B107D9F721E0A4E1B1E001C01D9298
S1130080A731B207E1F70E946D020C9416040C9498
S11300900000CF93C82F40E062E081E00E949E02FE
S11300A040E061E081E00E949E026C2F80E00E94AB
S11300B0D30341E060E081E00E949E0283EF91E07F
S11300C00197F1F700C0000040E060E081E00E9489
S11300D09E02CF910895CF93C82F41E062E081E062
S11300E00E949E0240E061E081E00E949E026C2F2B
S11300F080E00E94D30341E060E081E00E949E0220
S113010083EF91E00197F1F700C0000040E060E068
S113011081E00E949E02CF9108958FE097E20197BB
S1130120F1F700C0000088E30E9449008CE00E94BF
S1130130490081E00E94490008950F931F93CF93D3
S11301408C01C0E003C00E946B00CF5FF801EC0F8C
S1130150F11D80818111F7CFCF911F910F910895E7
S113016081E00E9449000895CF93AC019C01ADEC5D
S1130170BCEC0E940704FC01F695E795F695E7951B
S1130180F695E7959F01220F331FCF01880F991F22
S1130190880F991F880F991F820F931F481B590BB3
S11301A0C0E3C40F80E38E0F0E946B008C2F0E946B
S11301B06B00CF91089561E080E00E94C30341E0A9
S11301C060E081E00E944D0341E062E081E00E9432
S11301D04D0341E061E081E00E944D03089581E612
S11301E090E00E949D002FEB87E299E0215080402F
S11301F09040E1F700C000000E94B0008CE690E05F
S11302000E949D002FEB87E299E0215080409040AE
S1130210E1F700C000000E94B0008BE790E00E946C
S11302209D002FEB87E299E0215080409040E1F758
S113023000C000000E94B00083E890E00E949D008E
S11302402FEB87E299E0215080409040E1F700C015
S113025000000E94B00082E990E00E949D002FEB14
S113026087E299E0215080409040E1F700C000000F
S11302700E94B0008AE990E00E949D002FEB87E283
S113028099E0215080409040E1F700C000000E94B6
S1130290B0008AEA90E00E949D002FEB87E299E08B
S11302A0215080409040E1F700C000000E94B0005F
S11302B087EB90E00E949D002FEB87E299E02150AC
S11302C080409040E1F700C000000E94B00086EC3E
S11302D090E00E949D002FEB87E299E0215080403E
S11302E09040E1F700C000000E94B000089540E093
S11302F060E082E00E944D0340E061E082E00E9401
S11303004D0340E062E082E00E944D0340E063E080
S113031082E00E944D0341E060E082E00E949E0280
S113032041E061E082E00E949E0241E062E082E0FE
S11303300E949E0241E063E082E00E949E020895D2
S113034060E082E00E941403811119C08091600072
S11303508F5F8093600083ED90E00E949D00809108
S1130360600090E00E94B4002FEB87E299E02150F6
S113037080409040E1F700C000000E94B00061E0BE
S113038082E00E941403811119C0809160008150A1
S1130390809360008DED90E00E949D00809160004C
S11303A090E00E94B4002FEB87E299E02150804056
S11303B09040E1F700C000000E94B00062E082E0DB
S11303C00E941403811114C087EE90E00E949D00E6
S11303D08091600090E00E94B4002FEB87E299E0E6
S11303E0215080409040E1F700C000000E94B0001E
S11303F063E082E00E941403811118C08FEE90E044
S11304000E949D008091600090E00E94B4002FEF54
S113041084E39CE0215080409040E1F700C000005C
S11304200E94B00080916000809316010895CF93DC
S1130430DF93EC0141E064E083E00E944D0341E07E
S113044065E083E00E944D0390911601992309F41D
S113045041C080916000891708F4892F90E0C81783
S1130460D907C0F041E064E083E00E949E0241E0CD
S113047065E083E00E949E0286EF90E00E949D006A
S11304802FE986E891E0215080409040E1F700C0D8
S1130490000020C0C817D90758F440E064E083E0A6
S11304A00E949E0240E065E083E00E949E0212C02A
S11304B08FEF90E00E949D00CE010E94B4002FE3D4
S11304C08DE093E0215080409040E1F700C00000AF
S11304D00E94B000DF91CF9108950E94E7030E942B
S11304E0DB000E948D000E94EF000E9477010E94B1
S11304F0E3030E94A0010E94030490E0909315017D
S1130500809314018DE091E00E949D00809114017C
S1130510909115010E94B4002FE38DE093E02150E7
S113052080409040E1F700C000000E94B00080913C
S11305301401909115010E941702DBCF843008F05A
S113054072C0683008F06FC04130A1F5813089F085
S113055028F08230C9F0833011F108952BB381E083
S113056090E002C0880F991F6A95E2F7822B8BBB3B
S1130570089528B381E090E002C0880F991F6A951E
S1130580E2F7822B88BB089525B381E090E002C096
S1130590880F991F6A95E2F7822B85BB089522B3D1
S11305A081E090E002C0880F991F6A95E2F7822BE0
S11305B082BB0895411137C0813091F028F0823018
S11305C0D9F0833029F108952BB381E090E002C083
S11305D0880F991F6A95E2F7809582238BBB089553
S11305E028B381E090E002C0880F991F6A95E2F772
S11305F08095822388BB089525B381E090E002C0F2
S1130600880F991F6A95E2F78095822385BB089528
S113061022B381E090E002C0880F991F6A95E2F747
S11306208095822382BB0895843090F5683090F5DC
S1130630813081F028F08230B9F08330F9F02BC09A
S113064089B390E002C0959587956A95E2F7982F53
S1130650917021C086B390E002C0959587956A9504
S1130660E2F7982F917017C083B390E002C095957C
S113067087956A95E2F7982F91700DC080B390E04A
S113068002C0959587956A95E2F7982F917003C0FB
S11306909FEF01C09FEF892F0895843008F072C046
S11306A0683008F06FC04130A1F5813089F028F03E
S11306B08230C9F0833011F108952AB381E090E0CB
S11306C002C0880F991F6A95E2F7822B8ABB0895AE
S11306D027B381E090E002C0880F991F6A95E2F782
S11306E0822B87BB089524B381E090E002C0880F79
S11306F0991F6A95E2F7822B84BB089521B381E0A8
S113070090E002C0880F991F6A95E2F7822B81BBA3
S11307100895411137C0813091F028F08230D9F02A
S1130720833029F108952AB381E090E002C0880F54
S1130730991F6A95E2F7809582238ABB089527B3AF
S113074081E090E002C0880F991F6A95E2F78095D6
S1130750822387BB089524B381E090E002C0880F10
S1130760991F6A95E2F78095822384BB089521B38B
S113077081E090E002C0880F991F6A95E2F78095A6
S1130780822381BB0895813041F028F0823039F012
S1130790833039F008956ABB089567BB089564BB3C
S11307A0089561BB0895813041F028F0823039F01A
S11307B0833039F008956BBB089568BB089565BB19
S11307C0089562BB08958FB780688FBF089583E34F
S11307D089B910BC80B5806880BD80B5826080BD59
S11307E080B5846080BD8AB18B7F8AB980B58F7EE5
S11307F080BD80B58F7D80BD80B5877F80BD8AB187
S113080080618AB908955F9BFECF8CB10895A29F41
S1130810B001B39FC001A39F700D811D1124911DD0
S1130820B29F700D811D1124911D0895F894FFCF7E
S113083032204C494D49543A3530200020507265DD
S11308407373427574746F6E20310020746F206965
S11308506E6300205072657373427574746F6E20FA
S1130860320020746F2064656300205072657373D6
S1130870427574746F6E2033200020746F53686F58
S1130880774C696D69740020507265737342757496
S1130890746F6E20340020746F53656E646C696DE0
S11308A069740020696E63206C696D3A0020646588
S11308B063206C696D3A00206C696D69743A00209C
S11308C053656E743A0020414C41524D2121002061
S11308D04144432072656164696E673A00202020B8
S10708E0543D00007F
S9030000FC
